:100000000C9470000C9498000C9498000C94980038
:100010000C9498000C9498000C9498000C94980000
:100020000C9498000C9498000C9498000C949800F0
:100030000C9498000C9498000C9498000C949800E0
:100040000C9407040C9498000C94D5030C94AF0303
:100050000C9498000C9498000C9498000C949800C0
:100060000C9498000C949800000000080002010015
:100070000003040700000000000000001112131428
:1000800015160A0B0C0D0E0F000102030405484162
:100090005249532F435542452F52656C61790000F8
:1000A000000000250028002B00000000002400278D
:1000B000002A0004040404040404040202020202EC
:1000C000020303030303030102040810204080011C
:1000D000020408102001020408102000510419082D
:1000E00011241FBECFEFD8E0DEBFCDBF11E0A0E0EE
:1000F000B1E0EEE5F6E102C005900D92AE32B10737
:10010000D9F721E0AEE2B1E001C01D92AE3FB207E7
:10011000E1F710E0CFE6D0E004C02197FE010E9495
:100120004308CE36D107C9F70E9496040C94220BDF
:100130000C94000090E0FC01E953FF4F2491FC0176
:10014000ED54FF4F8491882399F090E0880F991F18
:10015000FC01E755FF4FA591B491FC01E156FF4F1B
:10016000859194918FB7F894EC91E22BEC938FBF2B
:100170000895CF92DF92EF92FF920F931F93CF9348
:10018000DF936C017A018B01C0E0D0E0CE15DF0572
:1001900089F0D8016D918D01D601ED91FC9101900E
:1001A000F081E02DC6010995892B11F47E0102C072
:1001B0002196ECCFC701DF91CF911F910F91FF9056
:1001C000EF90DF90CF900895FC01918D828D98176C
:1001D00061F0828DDF01A80FB11D5D968C91928D2B
:1001E0009F5F9F73928F90E008958FEF9FEF089528
:1001F000FC01918D828D981731F0828DE80FF11DF1
:10020000858D90E008958FEF9FEF0895FC01918D0B
:10021000228D892F90E0805C9F4F821B91098F7304
:10022000992708958FE391E00E94060121E0892B30
:1002300009F420E0822F0895FC01848DDF01A80FCE
:10024000B11DA35ABF4F2C91848D90E001968F73FE
:100250009927848FA689B7892C93A089B1898C911D
:1002600080648C93938D848D981306C00288F389E3
:10027000E02D80818F7D80830895EF92FF920F9310
:100280001F93CF93DF93EC0181E0888F9B8D8C8D42
:10029000981305C0E889F989808185FD24C0F62E70
:1002A0000B8D10E00F5F1F4F0F731127E02E8C8D09
:1002B000E8120CC00FB607FCFACFE889F9898081F3
:1002C00085FFF5CFCE010E941C01F1CF8B8DFE0181
:1002D000E80FF11DE35AFF4FF0820B8FEA89FB898B
:1002E0008081806207C0EE89FF896083E889F9898F
:1002F00080818064808381E090E0DF91CF911F91C5
:100300000F91FF90EF900895CF93DF93EC01888DCC
:100310008823C9F0EA89FB89808185FD05C0A88909
:10032000B9898C9186FD0FC00FB607FCF5CF80818F
:1003300085FFF2CFA889B9898C9185FFEDCFCE01D9
:100340000E941C01E7CFDF91CF91089580E090E0FB
:10035000892B29F00E94120181110C94000008954C
:1003600090E0FC01E859FF4F3491FC01E953FF4F45
:100370002491FC01ED54FF4FE491EE2309F43BC0BE
:10038000332339F1333091F038F43130A9F0323081
:1003900001F584B58F7D12C0373091F03830A1F06F
:1003A0003430B9F4809180008F7D03C0809180004B
:1003B0008F77809380000DC084B58F7784BD09C08E
:1003C0008091B0008F7703C08091B0008F7D8093C3
:1003D000B000F0E0EE0FFF1FE156FF4FA591B49182
:1003E0008FB7F894EC91611103C020952E2301C0C2
:1003F0002E2B2C938FBF08953FB7F8948091330133
:1004000090913401A0913501B091360126B5A89B99
:1004100005C02F3F19F00196A11DB11D3FBFBA2F96
:10042000A92F982F8827820F911DA11DB11DBC01F6
:10043000CD0142E0660F771F881F991F4A95D1F7BB
:1004400008958F929F92AF92BF92CF92DF92EF92D8
:10045000FF920E94FC014B015C0185E0C82ED12C6B
:10046000E12CF12C0E94FC01DC01CB0188199909D7
:10047000AA09BB09883E9340A105B10558F021E0C7
:10048000C21AD108E108F10888EE880E83E0981EB0
:10049000A11CB11CC114D104E104F10419F7FF90AF
:1004A000EF90DF90CF90BF90AF909F908F90089586
:1004B0008EBD00000DB407FEFDCF8EB508959CB52E
:1004C0009F7D9CBD9CB5937F9CBD9CB59C7F9CBD36
:1004D0009DB591609DBD682F8091E3010E94B001A0
:1004E0008FE090E00197F1F7089580E00C945F02AF
:1004F0001F93CF93DF931F92CDB7DEB789830E94FE
:10050000750289818F710E9458028FEF0E945802F4
:10051000182F81E00E945F02812F0F90DF91CF9111
:100520001F910895CF930E94750281EE0E94580298
:10053000C82F81E00E945F028C2FCF9108951F93F6
:10054000CF93DF9300D0CDB7DEB76A8389830E9453
:10055000750289818F7180620E945802182F6A810A
:10056000862F0E94580281E00E945F02812F0F9027
:100570000F90DF91CF911F91089580E00E94780243
:1005800081FD07C0682F626080E00E949F020C948A
:1005900021020895EF92FF920F931F93CF93DF9361
:1005A00000D01F92CDB7DEB7162F4A837B83898395
:1005B0000E94750289818F7180620E945802082F03
:1005C000E12E7B81F72E4A81140F1E1531F0F701C1
:1005D00081917F010E945802F8CF81E00E945F0262
:1005E000802F0F900F900F90DF91CF911F910F915F
:1005F000FF90EF900895009769F0FC0101900020B2
:10060000E9F73197AF01481B590BBC018FE391E02B
:100610000C94B90080E090E00895CF93DF93FC0143
:1006200044815581608171818FE391E00E94B9001E
:10063000EC0186E191E00E94FB028C0F9D1FDF918F
:10064000CF910895CF93DF93EC0188819981009732
:1006500011F00E94DE08198218821D821C821B8202
:100660001A82DF91CF910895FC01808191810C94D1
:10067000DE080E94400A0F931F93CF93DF93EC0193
:1006800088819981009729F02A813B8126173707B5
:1006900088F48B016F5F7F4F0E947609009761F0AD
:1006A000998388831B830A832C813D81232B11F43A
:1006B000FC01108281E001C080E0DF91CF911F91A9
:1006C0000F910895EF92FF920F931F93CF93DF93B3
:1006D000EC017B018A01BA010E943B03811104C035
:1006E000CE010E94220307C01D830C83B7018881BD
:1006F00099810E944E0ACE01DF91CF911F910F91F7
:10070000FF90EF900895CF93DF93EC016115710591
:1007100059F0FB0101900020E9F73197AF01461B2A
:10072000570B0E94620302C00E942203CE01DF9198
:10073000CF910895FC0111821082138212821582DA
:1007400014826115710551F0FB0101900020E9F759
:100750003197AF01461B570B0C94620308951F920B
:100760000F920FB60F9211242F933F934F935F93E5
:100770006F937F938F939F93AF93BF93EF93FF9369
:100780008FE391E00E941C01FF91EF91BF91AF9127
:100790009F918F917F916F915F914F913F912F9199
:1007A0000F900FBE0F901F9018951F920F920FB6CB
:1007B0000F9211242F938F939F93EF93FF93E091C8
:1007C0004F01F09150018081E0915501F091560167
:1007D00082FD12C09081809158018F5F8F732091AC
:1007E0005901821751F0E0915801F0E0E15CFE4FB1
:1007F000958F8093580101C08081FF91EF919F9167
:100800008F912F910F900FBE0F901F9018951F92F0
:100810000F920FB60F9211242F933F938F939F93B4
:10082000AF93BF9380912F0190913001A09131013E
:10083000B091320130912E0123E0230F2D3720F4A7
:100840000196A11DB11D05C026E8230F0296A11D2A
:10085000B11D20932E0180932F0190933001A0931E
:100860003101B09332018091330190913401A09114
:100870003501B09136010196A11DB11D8093330160
:1008800090933401A0933501B0933601BF91AF919D
:100890009F918F913F912F910F900FBE0F901F90BE
:1008A0001895EFE3F1E01382128288EE93E0A0E066
:1008B000B0E084839583A683B7838AE091E0918337
:1008C000808385EC90E09587848784EC90E097871F
:1008D000868780EC90E0918B808B81EC90E0938B0D
:1008E000828B82EC90E0958B848B86EC90E0978BEA
:1008F000868B118E128E138E148E68E171E084EF58
:1009000091E00E949A03E2EEF1E089E080838AE0C0
:100910008183148280E28583168285E08487178232
:1009200069E171E08CED91E00C949A03CF93DF9331
:10093000CDB7DEB7EF970FB6F894DEBF0FBECDBFD1
:10094000789484B5826084BD84B5816084BD85B5AA
:10095000826085BD85B5816085BD80916E008160B6
:1009600080936E001092810080918100826080935C
:10097000810080918100816080938100809180005E
:100980008160809380008091B10084608093B10089
:100990008091B00081608093B00080917A00846083
:1009A00080937A0080917A00826080937A008091AF
:1009B0007A00816080937A0080917A0080688093C9
:1009C0007A001092C100E0914F01F091500182E055
:1009D0008083E0914B01F0914C011082E0914D0138
:1009E000F0914E0180E1808310925701E091530114
:1009F000F091540186E08083E0915101F091520121
:100A0000808180618083E0915101F0915201808169
:100A100088608083E0915101F0915201808180686B
:100A20008083E0915101F091520180818F7D80831C
:100A30000EE810E0F801649161110DC086E191E0CB
:100A40000E94FB028AE090E00E94D50A8F3F91F05D
:100A500080933E010FC0E0913F01F0914001019071
:100A6000F081E02D8FE391E009950F5F1F4F892BF7
:100A700009F7E4CF6FE171E084EF91E00E94830316
:100A80000091F8011091F9010115110549F4109236
:100A9000380128E3E22E21E0F22E00E010E013C03E
:100AA0000530110510F005E010E06091F40170913F
:100AB000F501A80188E391E00E94550AF801E85C7D
:100AC000FE4F1082E6CFC8010E94D50AD7018D9350
:100AD0007D010F5F1F4F06301105A9F728E331E0B4
:100AE0002F3F81F130E040E050E019A28E010F5D10
:100AF0001F4F9AE0C92ED12CE12CF12CCA01B9016B
:100B0000A70196010E942108605DF80162938F01A0
:100B1000211531054105510589F7CF010E94FB02DE
:100B200086E191E00E94FB0268E371E0CE0101964C
:100B30000E949A03CE0101960E940D03CE010196F8
:100B40000E94340386E00E949A0060913E0186E094
:100B50000E94B0018091E2019091E30189130E940B
:100B60009A008091E3019091E20198130E949A000B
:100B70001FB7F89480913701811124C0EDEBF0E0AC
:100B80008491E1EDF0E09491E82FF0E0EE0FFF1F8B
:100B9000E755FF4FA591B491EC91E92321F461E071
:100BA0008AE00E94B0018AE00E949A008CB58061C0
:100BB0008CBD8CB580648CBD8DE00E949A008BE06A
:100BC0000E949A00809137018F5F809337011FBF89
:100BD0008091E2019091E301891719F060E00E9491
:100BE000B00181E00E945F020E9421026CE080E07F
:100BF0000E949F026FE584E00E949F0286E00E94AF
:100C00007802877D182F10628BE990E0A0E0B0E0B9
:100C10008093EF019093F001A093F101B093F20162
:100C2000612F86E00E949F0286E00E947802811771
:100C300009F45BC186E00E94780286E00E94780297
:100C400045E550E060E070E04093EF015093F00123
:100C50006093F1017093F201682F677D86E00E9436
:100C60009F0286E00E9478020E94750280E50E9441
:100C7000580283E70E94580281E00E945F0260E010
:100C80008DE10E949F0260E08CE10E949F0260E77C
:100C900087E00E949F026CE485E00E949F020E9410
:100CA000750282EE0E94580281E00E945F020E945B
:100CB00092020E94BD0280E00E947802682F6E7F3F
:100CC00080E00E949F0286E00E947802887F682F61
:100CD000656086E00E949F02E3E8F0E08491409125
:100CE000EE0168E371E00E94CA02EDE7F0E0849152
:100CF0006091E7010E949F0282E00E947802E9E889
:100D0000F0E0E49161E070E001C0660FEA95EAF777
:100D1000682B82E00E949F020E94BD0280E00E9438
:100D20007802682F616080E00E949F0260E787E0A0
:100D30000E949F028091E2019091E301891719F0CE
:100D400061E00E94B0018091E901882341F0409167
:100D5000EE0169EE71E08AE00E94CA0212C082E0F0
:100D60000E947802E8E8F0E0E49121E030E001C080
:100D7000220FEA95EAF72095622F682382E00E940D
:100D80009F028DE10E94780281FD0E94920287E11C
:100D90000E94780280FDA2C087E10E94780280FF55
:100DA000A8C0BE016F5F7F4FCE01CA960E949A0312
:100DB0001DAA1CAA1FAA1EAA19AE18AE6AAD7BAD49
:100DC0006115710531F04EAD5FADCE01C4960E9444
:100DD0006203E8ACF9ACF7013197CCA8DDA820E0BC
:100DE00030E08FEF9FEF60E070E040E050E0122FC6
:100DF000032FE217F3070CF4CFC0423051050CF477
:100E0000A6C08C017B018617970710F47C018B012B
:100E100068E171E0CE0182960E949A0388AD99AD97
:100E2000E816F90608F4C3C08AA19BA1009709F44B
:100E3000D7C00E94640A6B017C015601CE018296E4
:100E40000E943403CE01C4960E9434031DAA1CAA3A
:100E50001FAA1EAA19AE18AE4AE0BE016E5D7F4FF2
:100E6000C6010E948B0ABE016E5D7F4FCE01C49603
:100E70000E94830365E271E0CE0182960E949A038C
:100E800088AD99ADECA8FDA80EA11FA1E114F10455
:100E900009F4CAC0009709F0A7C0CE0182960E944B
:100EA0000D03CE0182960E943403CE01C4960E94A7
:100EB0003403E1E0AE16B10409F0ABC081E08093E9
:100EC0003E0161E086E00E94B00161E08AE090E0CE
:100ED0000E94DD0ACE01CA960E9434038FE391E09E
:100EE0000E9406010E94A60152CF81E08093E60194
:100EF000A1CE1091E7011E3140F10EE18091E80191
:100F0000811102C0101B01C010E00E94750281E631
:100F10000E945802CE0101967C01015038F08FEFFB
:100F20000E945802D7018D937D01F7CF112329F03C
:100F30008FEF0E9458021150F9CF81E00E945F02AA
:100F400060E787E00E949F0227CF012FD7CFD9010A
:100F500011964D012E153F0558F4C114D10441F0EE
:100F60005601A20EB31ED501BC90BCE7BB1631F0F2
:100F70002E173F0719F0182F092F0AC04F5F5F4F38
:100F8000BC016F5F7F4F2E173F0711F4182D092DFD
:100F90009401812F902F2BCF423051050CF031CF8F
:100FA00068E171E0CE0182960E949A033DCF8017DE
:100FB000910708F48C01ECA9FDA9E00FF11FD08086
:100FC00010826CA97DA96E0D7F1DCE0182960E94B4
:100FD00083038CA99DA9FC01E00FF11FD08224CFCF
:100FE000C12CD12C760129CF080F191FB801CE01D1
:100FF00082960E943B038823B9F02AA13BA18EA1CF
:101000009FA1B701820F931F0E944E0A1FA30EA338
:1010100044CFAB2809F05ECF10923E0160E086E03D
:101020000E94B00160E052CFCE0182960E9422035E
:1010300034CF8CED91E00E94340384EF91E00C9466
:101040003403A1E21A2EAA1BBB1BFD010DC0AA1F6F
:10105000BB1FEE1FFF1FA217B307E407F50720F021
:10106000A21BB30BE40BF50B661F771F881F991F9C
:101070001A9469F760957095809590959B01AC01E5
:10108000BD01CF010895EE0FFF1F0590F491E02DF3
:101090000994CF93DF938230910510F482E090E0C1
:1010A000E091FC01F091FD0120E030E0C0E0D0E0F3
:1010B000309711F14081518148175907C0F0481706
:1010C000590761F482819381209719F09B838A8369
:1010D0002BC09093FD018093FC0126C021153105A2
:1010E00019F04217530718F49A01BE01DF01EF010E
:1010F0000280F381E02DDCCF2115310509F1281B99
:10110000390B2430310590F412968D919C911397F0
:101110006115710521F0FB019383828304C09093D4
:10112000FD018093FC01FD01329644C0FD01E20FF8
:10113000F31F81939193225031092D933C933AC030
:101140002091FA013091FB01232B41F420910201FF
:10115000309103013093FB012093FA0120910001AB
:10116000309101012115310541F42DB73EB7409171
:10117000040150910501241B350BE091FA01F09117
:10118000FB01E217F307A0F42E1B3F0B28173907CA
:1011900078F0AC014E5F5F4F2417350748F04E0FD3
:1011A0005F1F5093FB014093FA018193919302C01A
:1011B000E0E0F0E0CF01DF91CF9108950F931F930E
:1011C000CF93DF93009709F48CC0FC013297138210
:1011D00012820091FC011091FD010115110581F4AD
:1011E00020813181820F931F2091FA013091FB0100
:1011F0002817390779F5F093FB01E093FA0171C0E4
:10120000D80140E050E0AE17BF0750F412962D9180
:101210003C911397AD012115310509F1D901F3CFA7
:101220009D01DA013383228360817181860F971FCC
:101230008217930769F4EC0128813981260F371F43
:101240002E5F3F4F318320838A819B8193838283EA
:10125000452B29F4F093FD01E093FC0142C0139665
:10126000FC93EE931297ED01499159919E01240F41
:10127000351FE217F30771F480819181840F951F68
:10128000029611969C938E938281938113969C93E0
:101290008E931297E0E0F0E0D80112968D919C9128
:1012A0001397009719F0F8018C01F6CF8D919C915E
:1012B00098012E5F3F4F820F931F2091FA013091CA
:1012C000FB012817390769F4309729F41092FD01C2
:1012D0001092FC0102C0138212821093FB01009352
:1012E000FA01DF91CF911F910F910895A0E0B0E036
:1012F000ECE7F9E00C94EF0AEC01009721F4CB0144
:101300000E944908B8C0FC01E60FF71F9C0122505B
:101310003109E217F30708F4ACC0D9010D911C9113
:10132000119706171707B0F00530110508F49FC094
:10133000C80104978617970708F499C0025011094D
:10134000061B170B019311936D937C93CF010E94A1
:10135000DE088DC05B01A01AB10A4C01800E911EFF
:10136000A091FC01B091FD0140E050E0E12CF12C96
:10137000109709F44AC0A815B905D1F56D907C9075
:101380001197630182E0C80ED11CCA14DB0480F1FE
:10139000A3014A195B096A0182E0C80ED11C1296AA
:1013A000BC9012971396AC91B5E0CB16D10440F0E7
:1013B000B282A38351834083D9016D937C930AC089
:1013C0000E5F1F4FC301800F911FF901918380832E
:1013D000EB2DFA2FE114F10431F0D7011396FC93B1
:1013E000EE93129744C0F093FD01E093FC013FC0DF
:1013F0008D919C9111974817590708F4AC017D0114
:1014000012960D90BC91A02DB3CF8091FA019091CE
:10141000FB0188159905E1F446175707C8F4809138
:10142000000190910101009741F48DB79EB7409162
:10143000040150910501841B950BE817F907C8F4C6
:10144000F093FB01E093FA01F901718360830FC00F
:10145000CB010E9449087C01009759F0A801BE0108
:101460000E94450ACE010E94DE08C70104C0CE01D9
:1014700002C080E090E0CDB7DEB7EEE00C940B0B3D
:1014800081E090E0F8940C94220BFB01DC0102C097
:1014900001900D9241505040D8F70895FB01DC01B6
:1014A00001900D920020E1F70895FB01DC0141500D
:1014B000504048F001900D920020C9F701C01D92E4
:1014C00041505040E0F708951F93FC019927882769
:1014D000BC01E89411911032E9F3193010F01E307C
:1014E000C8F31B3251F01D3249F4689406C00E94C3
:1014F000960A610F711D811D911D119110531A30B3
:10150000B0F33EF490958095709561957F4F8F4F25
:101510009F4F1F910895BB274A3031F4992322F43D
:10152000BDE2909581959F4F0C94AC0A592F482F9E
:10153000372F262F660F771F881F991F660F771F7B
:10154000881F991F620F731F841F951F660F771FD7
:10155000881F991F0895BB27FB015527AA27880FCD
:10156000991FAA1FA41710F0A41B83955051B9F717
:10157000A05DAA3308F0A95DA193009779F7B11196
:10158000B1931192CB010C94C50ADC01FC01672FC9
:1015900071917723E1F7329704C07C916D9370834A
:1015A0006291AE17BF07C8F30895F999FECF92BDB7
:1015B00081BDF89A992780B50895262FF999FECF15
:1015C0001FBA92BD81BD20BD0FB6F894FA9AF99A60
:1015D0000FBE019608952F923F924F925F926F92A5
:1015E0007F928F929F92AF92BF92CF92DF92EF92B3
:1015F000FF920F931F93CF93DF93CDB7DEB7CA1B34
:10160000DB0B0FB6F894DEBF0FBECDBF09942A885E
:10161000398848885F846E847D848C849B84AA8406
:10162000B984C884DF80EE80FD800C811B81AA8193
:10163000B981CE0FD11D0FB6F894DEBF0FBECDBF5E
:10164000ED01089510E0CFE6D0E004C0FE010E9455
:0E16500043082196C037D107C9F7F894FFCFA1
:10165E000000FE018000000000003D01B9000601FF
:10166E00E400F80084010D0A0030303030300061A3
:0E167E005064313200416B636A613A20000013
:107800000C94343C0C94513C0C94513C0C94513CE1
:107810000C94513C0C94513C0C94513C0C94513CB4
:107820000C94513C0C94513C0C94513C0C94513CA4
:107830000C94513C0C94513C0C94513C0C94513C94
:107840000C94513C0C94513C0C94513C0C94513C84
:107850000C94513C0C94513C0C94513C0C94513C74
:107860000C94513C0C94513C11241FBECFEFD8E036
:10787000DEBFCDBF11E0A0E0B1E0ECE9FFE702C060
:1078800005900D92A230B107D9F712E0A2E0B1E065
:1078900001C01D92AD30B107E1F70E942D3D0C945F
:1078A000CC3F0C94003C982F959595959595959582
:1078B000905D8F708A307CF0282F295A8091C0000B
:1078C00085FFFCCF9093C6008091C00085FFFCCF60
:1078D0002093C6000895282F205DF0CF982F809127
:1078E000C00085FFFCCF9093C6000895EF92FF92F1
:1078F0000F931F93EE24FF2487018091C00087FD22
:1079000017C00894E11CF11C011D111D81E4E8164B
:1079100082E4F8068FE0080780E0180770F3E09132
:107920000401F091050109958091C00087FFE9CF1E
:107930008091C6001F910F91FF90EF9008950E94D3
:10794000763C982F8091C00085FFFCCF9093C600B5
:1079500091362CF490330CF09053892F089597555D
:10796000892F08951F930E949F3C182F0E949F3CCF
:107970001295107F810F1F9108951F93182F882350
:1079800021F00E94763C1150E1F71F9108951F935A
:10799000182F0E94763C803249F0809103018F5F5E
:1079A000809303018530C1F01F9108958091C0003C
:1079B00085FFFCCF84E18093C6008091C00085FFE5
:1079C000FCCF1093C6008091C00085FFFCCF80E102
:1079D0008093C6001F910895E0910401F091050184
:1079E00009951F9108950E94763C803241F0809164
:1079F00003018F5F80930301853081F008958091AA
:107A0000C00085FFFCCF84E18093C6008091C00058
:107A100085FFFCCF80E18093C6000895E0910401CA
:107A2000F09105010995089540E951E08823A1F0FE
:107A30002D9A28EE33E0FA013197F1F721503040CA
:107A4000D1F72D9828EE33E0FA013197F1F7215064
:107A50003040D1F7815061F708953F924F925F9285
:107A60006F927F928F929F92AF92BF92CF92DF924E
:107A7000EF92FF920F931F93CF93DF93000080E16B
:107A80008093C4001092C50088E18093C10086E015
:107A90008093C2005098589A259A81E00E94143D24
:107AA00024E1F22E9EE1E92E85E9D82E0FE0C02ECA
:107AB00010E1B12EAA24A394B1E49B2EA6E58A2E50
:107AC000F2E57F2EE0E26E2E79E4572E63E5462E36
:107AD00050E5352E0E94763C8033B1F18133B9F107
:107AE000803409F46FC0813409F476C0823409F41B
:107AF00085C0853409F488C0803531F1823521F1A3
:107B0000813511F1853509F485C0863509F48DC0BC
:107B1000843609F496C0843709F403C1853709F423
:107B200072C1863709F466C0809103018F5F80932C
:107B30000301853079F6E0910401F0910501099582
:107B40000E94763C803351F60E94F33CC3CF0E94E2
:107B5000763C803249F78091C00085FFFCCFF092DF
:107B6000C6008091C00085FFFCCF9092C600809136
:107B7000C00085FFFCCF8092C6008091C00085FFC9
:107B8000FCCF7092C6008091C00085FFFCCF609250
:107B9000C6008091C00085FFFCCF5092C600809146
:107BA000C00085FFFCCF4092C6008091C00085FFD9
:107BB000FCCF3092C6008091C00085FFFCCFB09210
:107BC000C60088CF0E94763C863808F4BDCF0E945C
:107BD000763C0E94F33C7ECF0E94763C803809F4CC
:107BE0009CC0813809F40BC1823809F43CC1883942
:107BF00009F48FC080E00E94C73C6CCF84E10E94F2
:107C0000BD3C0E94F33C66CF85E00E94BD3C0E94D3
:107C1000F33C60CF0E94763C809306010E94763C44
:107C2000809307010E94F33C55CF0E94763C80333D
:107C300009F41DC183E00E94BD3C80E00E94C73C66
:107C400049CF0E94763C809309020E94763C809343
:107C5000080280910C028E7F80930C020E94763C79
:107C6000853409F415C18091080290910902892B8D
:107C700089F000E010E00E94763CF801E85FFE4FDA
:107C800080830F5F1F4F80910802909109020817AF
:107C9000190788F30E94763C803209F045CF809125
:107CA0000C0280FF01C16091060170910701660F0F
:107CB000771F7093070160930601A0910802B091AD
:107CC00009021097C9F0E8E0F1E09B01AD014E0F09
:107CD0005F1FF999FECF32BD21BD819180BDFA9A17
:107CE000F99A2F5F3F4FE417F50799F76A0F7B1F4B
:107CF00070930701609306018091C00085FFFCCF5F
:107D0000F092C6008091C00085FFFCCFB092C60003
:107D1000E1CE83E00E94C73CDDCE82E00E94C73CFA
:107D2000D9CE0E94763C809309020E94763C8093D3
:107D300008028091060190910701880F991F909386
:107D40000701809306010E94763C853409F4A6C0A1
:107D500080910C028E7F80930C020E94763C8032D0
:107D600009F0B8CE8091C00085FFFCCFF092C6002C
:107D7000609108027091090261157105B9F140E046
:107D800050E080910C02A82FA170B82FB27011C0E2
:107D9000BB2309F45CC0E0910601F0910701319624
:107DA000F0930701E09306014F5F5F4F46175707B7
:107DB000E8F4AA2369F3F999FECF209106013091E6
:107DC000070132BD21BDF89A90B58091C00085FFB2
:107DD000FCCF9093C6002F5F3F4F30930701209355
:107DE00006014F5F5F4F4617570718F38091C00099
:107DF00085FDE5CE8091C00085FFF8CFE0CE81E023
:107E00000E94C73C67CE0E94763C803209F08CCE3F
:107E10008091C00085FFFCCFF092C6008091C00029
:107E200085FFFCCFE092C6008091C00085FFFCCFAB
:107E3000D092C6008091C00085FFFCCFC092C600E2
:107E40008091C00085FFFCCFB092C60043CEE09188
:107E50000601F091070194918091C00085FFFCCF4D
:107E60009093C6009CCF80E10E94C73C33CE0E9415
:107E7000763C0E94763C182F0E94763C112309F430
:107E800083C0113009F484C08FE00E94C73C22CE29
:107E900080910C02816080930C02E5CE80910C02EF
:107EA000816080930C0259CF809107018823880F4D
:107EB000880B8A2180930B02809106019091070123
:107EC000880F991F90930701809306018091080203
:107ED00080FF09C080910802909109020196909359
:107EE000090280930802F894F999FECF1127E091D6
:107EF0000601F0910701C8E0D1E08091080290915D
:107F00000902103091F40091570001700130D9F34B
:107F100003E000935700E89500915700017001308D
:107F2000D9F301E100935700E89509901990009169
:107F3000570001700130D9F301E000935700E89534
:107F40001395103498F011270091570001700130FB
:107F5000D9F305E000935700E895009157000170B0
:107F60000130D9F301E100935700E895329602976A
:107F700009F0C7CF103011F00296E5CF112480919F
:107F8000C00085FFB9CEBCCE8EE10E94C73CA2CD19
:0C7F900085E90E94C73C9ECDF894FFCF0D
:027F9C00800063
:040000030000780081
:00000001FF
